:020000040800F2
:1000000000040020470100085501000857010008BE
:10001000590100085B0100085D01000800000000B4
:100020000000000000000000000000005F01000868
:10003000610100080000000063010008650100087C
:10004000DF090008ED050008A9080008A30800085A
:100050009D0400081D0800088F0400089304000890
:100060009504000897040008990400086701000837
:1000700067010008670100086701000867010008C0
:1000800067010008670100086701000867010008B0
:100090006701000867010008670100089B04000869
:1000A000AB080008B1080008AF080008AD08000858
:1000B000B3080008B5080008B7080008C70500081D
:1000C000C5050008CB050008C9050008A5080008FB
:1000D000A7080008B9080008BB080008BD08000808
:1000E00091040008A1080008DD0900086701000864
:1000F0006701000867010008670100086701000840
:10010000670100086701000867010008670100082F
:10011000670100086701000867010008670100081F
:10012000670100086701000867010008670100080F
:10013000DFF80CD000F050F800480047B50E00087A
:1001400070020020704708488047084981F30888FA
:1001500007480047FEE7FEE7FEE7FEE7FEE7FEE7AB
:10016000FEE7FEE7FEE7FEE745010008700200201B
:10017000310100082DE9F05F0546002092469B46BC
:1001800088460646814640241BE0284641464746AD
:10019000224600F042F852465B46801A994110D33D
:1001A00010461946224600F029F82D1A67EB01087F
:1001B0004F4622460120002100F020F817EB0009ED
:1001C0004E41201EA4F10104DFDC484631462A4698
:1001D0004346BDE8F09F0000064C074D06E0E0688E
:1001E00040F0010394E8070098471034AC42F6D37E
:1001F000FFF7A2FF5810000878100008202A04DB3F
:10020000203A00FA02F1002070479140C2F1200329
:1002100020FA03F3194390407047202A04DB203A68
:1002200021FA02F00021704721FA02F3D040C2F116
:10023000200291400843194670470029816802D086
:1002400041F0010101E021F00101816070470029C6
:10025000816802D041F4807101E021F480718160F5
:100260007047014600208968490700D50120704782
:10027000C06C80B27047014600208968090700D52C
:100280000120704710B542680E4B0C791A400B687C
:1002900042EA04221343436082680B4B1A40D1E9BF
:1002A000024323434C7942EA440213438360C26A07
:1002B000097C22F47002491EC9B242EA0151C162AE
:1002C00010BD0000FFFEF0FFFDF7F1FF70B5072540
:1002D00009290AD9C468A1F10A0606EB4606B54009
:1002E000AC43B3401C43C46007E0046901EB410622
:1002F000B540AC43B3401C4304611F23072A09D215
:10030000446B521E02EB820293409C4391400C438B
:10031000446370BD0D2A09D2046BD21F02EB820226
:1003200093409C4391400C43046370BDC46A0D3AF2
:1003300002EB820293409C4391400C43C46270BD27
:10034000816841F00801816070470029816802D00E
:1003500041F4A00101E021F4A001816070478168AF
:1003600041F00401816070470029016802D041F02A
:10037000010101E021F0010101607047016821F0F5
:10038000010101600021016041608160C1602D4B6D
:100390002C49C21A8039984243D018DC2A4BA0EB72
:1003A0000302984235D00ADC284A801829D0142844
:1003B0002BD0282824D1486840F4706034E0142AF7
:1003C0002BD0282A1CD1486840F470002CE020482B
:1003D000B2F56C7F2ED009DCB2F5627F26D0B2F583
:1003E000677F0DD1016841F0F00108E0B2F5717F3F
:1003F00024D0B2F5767F03D1016841F47021016009
:100400007047486840F00F000EE0486840F0F00088
:100410000AE0486840F4704006E0486840F4702004
:1004200002E0486840F0706048607047016841F041
:100430000F01E4E7016841F47061E0E7016841F40D
:100440007041DCE78000024044000240F8FFFDBF3D
:100450000404024030B5036847F6F07293430C6A17
:100460008A682243D1E904452C4322438C69224304
:10047000CC6922434C6A22438C6A22431A430260AD
:10048000CA6842600A6882604968C16030BD7047CE
:10049000704770477047704770477047704700005B
:1004A00004490A6822F010020A600A6802430A60DE
:1004B0007047000000200240034A116801F0380133
:1004C00001431160704700000020024038B502204F
:1004D000ADF8000000208DF8030069460E4800F0DA
:1004E0001FF84FF40070ADF8000018208DF80300DD
:1004F00003200A4C8DF802006946204600F010F8EF
:100500002015ADF8000004208DF803006946204650
:1005100000F006F838BD000000100140000801405E
:100520002DE9F041CB78002503F00F02DB0601D561
:100530008B781A430B884FF00F0813F0FF0F4FF022
:10054000010C1CD0D0F800400E880CFA05F31E40B8
:100550009E4210D1AF0008FA07F624EA060602FA16
:1005600007F43443CE78282E02D0482E02D002E081
:10057000436100E003616D1C082DE5D304600B8826
:10058000FF2B1DD94468002505F108060CFA06F377
:100590000E881E409E420FD1AF0008FA07F624EAEB
:1005A000060602FA07F43443CE78282E00D14361C0
:1005B000CE78482E00D103616D1C082DE4D3446031
:1005C000BDE8F081704770477047704700214FF0D9
:1005D000006000F001B80000024A114001430248E7
:1005E0000160704780FFFF1F08ED00E070470000CA
:1005F000034A516821F440410143516070470000B3
:1006000000100240044A0029516901D0014300E072
:10061000814351617047000000100240044A0029E4
:10062000916901D0014300E081439161704700006E
:100630000010024010B500F043F84FF4803420461B
:1006400000F0D2F800F01AF91C490128487025D1B1
:10065000002000F0BFF8002000F0ECF8A01100F03E
:10066000DFF8A010FFF7C4FF0220FFF725FF1020DE
:10067000FFF716FF4FF4E011204600F0EBF80120E1
:1006800000F0E2F8392000F085F80028FAD00220C6
:1006900000F0EAF800F096F80828FBD1012108469E
:1006A000FFF7B0FF01214FF40470FFF7B7FFBDE87B
:1006B0001040012144F20400FFF7B0BF0000002009
:1006C0000B48016841F0010101604168094A11408D
:1006D00041600168084A11400160016821F48021ED
:1006E0000160416821F4FE01416000218160704792
:1006F000001002400000FFF8FFFFF6FE214A10B58F
:10070000516811F00C03204903D0042B01D0082BB1
:1007100026D0016051681D4B01F0F00109095C5CB5
:100720000168E1404160546804F4E064240A1C5DFF
:1007300021FA04F48460546804F460544FEAD42429
:100740001B5D21FA03F1C1605268104B02F4404274
:100750004FEA92321B1F9A5CB1FBF2F1016110BDAE
:100760005168022301F4701103EB9141536813F4B3
:10077000803F02D053689B0301D5054B00E0024B3C
:100780005943C6E70010024000127A00180000200A
:1007900000093D000246002053090949012B0BD0F6
:1007A000022B0BD0D1F8241002F01F02012393403A
:1007B0000B4200D0012070470968F5E7096AF3E7AA
:1007C000001002400248406800F00C007047000032
:1007D00000100240034A516821F0F00101435160CA
:1007E00070470000001002400B490A6822F4803272
:1007F0000A600A6822F480220A60B0F5803F07D0C0
:10080000B0F5802F03D1086840F4A020086070473D
:10081000086840F48030F9E700100240704700009B
:10082000034A516821F4E0610143516070470000C0
:100830000010024003494A6822F4605242EAC000B4
:100840004860704700100240014908667047000088
:1008500000004242034A5368084323F47C131843C0
:100860005060704700100240034A516821F00301B4
:1008700001435160704700000010024030B5002471
:100880004FF4A0653120FFF785FF641C08B9AC4226
:10089000F8D13120FFF77EFF002800D0012030BDC5
:1008A0007047704770477047704770477047704790
:1008B000704770477047704770477047704710B572
:1008C000038A4FF2FF0213400A884C8822438C8827
:1008D000C9880C4322431A43028210BD0029818932
:1008E00002D041F4005101E021F4005181817047B0
:1008F00030B587B000244FF40070ADF81400114DEE
:10090000ADF81040ADF81240ADF8164004A92846E5
:10091000FFF7D5FF4FF4E1300090ADF808400C2010
:10092000ADF80440ADF80A00ADF80640ADF80C4053
:100930006946284600F008F801212846FFF7CEFF57
:1009400007B030BD0038014030B50446008A85B09C
:100950000D464CF6FF710840E98801432182A189C8
:100960004EF6F3100140A8882A8910436A890A4389
:100970001043A081A08A4FF6FF410840A989014396
:10098000A1826846FFF7BAFE1148844201D103985C
:1009900000E00298642200EBC00101EB001029681E
:1009A0006FF018058900B0FBF1F0B0FBF2F109011E
:1009B0000B096B4300EB8300322303EB0010B0FB09
:1009C000F2F000F00F000843208105B030BD0000B8
:1009D00000380140C1F308018180704770477047BB
:1009E0000FB4054B10B503A9044A029800F018F89B
:1009F00010BC5DF814FB0000990E000828000020D0
:100A000002E008C8121F08C1002AFAD170477047D7
:100A1000002001E001C1121F002AFBD17047000035
:100A20002DE9FF4F8DB005460F460026E9E1252848
:100A300079D100246D1CF74AA246A14601212B78EA
:100A4000203B01FA03F0104202D004436D1CF6E78C
:100A500028782A2810D06FF02F022878A0F13001D2
:100A6000092915D80AEB8A0102EB410144F002047E
:100A700000EB010A6D1CF0E757F804ABBAF1000F68
:100A800003DA44F40054CAF1000A44F002046D1C75
:100A900028782E2817D115F8010F44F004042A28CD
:100AA0000ED06FF02F022878A0F1300109290AD862
:100AB00009EB890102EB410100EB01096D1CF2E732
:100AC00057F8049B6D1C28786C280FD006DC4C2846
:100AD00017D068280DD06A2814D104E0742810D0EB
:100AE0007A280FD10DE044F400140AE044F4801495
:100AF00001E044F440146978814202D16D1C04F590
:100B000080146D1C95F800C0BCF16E0F2AD012DC69
:100B1000BCF1630F3CD007DCBCF1000F76D0BCF118
:100B2000580F19D1A7E018E0BCF1640F6FD0BCF1E9
:100B3000690F11D16BE0BCF1730F32D006DCBCF150
:100B40006F0F71D0BCF1700F06D196E0BCF1750F3C
:100B50006BD0BCF1780F69D06046DDE90F12904789
:100B6000761C4DE1C4F30250022806D003280AD0B7
:100B7000042801CF0AD0066042E101CF4FEAE671B6
:100B8000C0E900613CE101CF068039E1067037E140
:100B900001CF8DF8000000208DF80100EB46012008
:100BA00003E057F804BB4FF0FF3061074FF000013E
:100BB00002D40DE008F10101884649450FDA80456D
:100BC000F8DB1BF808100029F4D108E008F1010156
:100BD00088468142FADB1BF808100029F6D1DDE9CE
:100BE0000F23AAEB08008146214600F03CF930446F
:100BF00000EB080604E0DDE90F121BF8010B90473B
:100C0000B8F10108F7D221464846F4E0FDE00A2198
:100C1000C4F302524FF0000B0891022A07D001CF13
:100C2000C117032A09D00AE030E022E023E0FF1DCB
:100C300027F00707F7E8020105E000B2C117042A10
:100C400001D140B2C117002906DA0023D0EB03001E
:100C500063EB01012D2202E0220504D52B228DF841
:100C60002420012203E0E20701D02022F7E790468A
:100C70004EE00A210BE0102109E010214FF0000B9B
:100C800044F004044FF00809089103E008214FF0F4
:100C9000000B0891C4F30252022A04D001CF0021B4
:100CA000032A06D007E0FF1D27F00707F7E8020137
:100CB00005E080B20021042A01D1C0B200214FF02A
:100CC0000008220724D5BCF1700F29D0089B83F0BF
:100CD000100353EA0B0309D150EA010206D0302277
:100CE0008DF824208DF825C002229046089B83F0C1
:100CF000080353EA0B030BD150EA010201D162074A
:100D000006D530228DF824204FF00108A9F1010901
:100D1000BCF1580F09D040A20B9208AA0A9211E028
:100D200040228DF824200122DFE740A2F4E75B4651
:100D3000089AFFF71FFA0B9B9B5C0A9AA2F101022B
:100D40000A92137050EA0102F1D10A98ADEB00004B
:100D500000F1200B600702D524F4803401E04FF04D
:100D60000109D94502DDA9EB0B0000E0002000EBF2
:100D70000B0141440890AAEB01000B90E00306D45C
:100D8000DDE90F2321460B9800F06DF806444FF083
:100D900000090DF1240A07E0DDE90F121AF8090035
:100DA0009047761C09F10109C145F5DBE0030CD53C
:100DB000DDE90F2321460B9800F055F8064404E0C6
:100DC000DDE90F1230209047761C0899481E0890E4
:100DD0000029F5DC08E00A980A990078491C0A9174
:100DE000DDE90F129047761CBBF10001ABF1010B5E
:100DF000F1DC0B982146DDE90F2300F021F80644D1
:100E00006D1C287800287FF412AE11B03046BDE882
:100E1000F08F000009280100303132333435363785
:100E20003839616263646566000000003031323336
:100E300034353637383941424344454600000000D6
:100E40002DE9F0410446002517461E46880405D4C6
:100E500006E039462020B04705F10105641EF8D5AB
:100E60002846BDE8F0812DE9F04104460025904672
:100E70001E46C80301D5302700E02027880405D589
:100E800006E041463846B04705F10105641EF8D535
:100E90002846BDE8F081000070B5054D0446C1B29A
:100EA0002846FFF797FD28880006FCD5204670BD30
:100EB00000380140FFF7BEFBFFF788FBFFF706FB9A
:100EC000FFF716FD3FA0FFF78BFD4C4D2846FFF7BF
:100ED00055FA4C484A49021D01604B49002401273C
:100EE00092C2A9150461C0E905418900C1612021B0
:100EF00001620902C0E9091401462846FFF7AAFA6F
:100F000001212846FFF730FA3E484FF4602114389B
:100F10003B4E046007714771C0E902140774014633
:100F20004C3E3046FFF7AEF901213046FFF78FF90E
:100F300001213046FFF781F93046FFF701FA3046CC
:100F4000FFF799F90028FAD13046FFF708FA304642
:100F5000FFF787F90028FAD101213046FFF7F5F9AC
:100F6000294DAD1E20462C61401C0528FCD328616C
:100F7000E868411CE9602549884202D3EC602F7083
:100F800002E028780028EDD02C70052301220B21E7
:100F90003046FFF79BF93046FFF76AF90146686073
:100FA0001BA0FFF71DFD052301220A213046FFF794
:100FB0008DF93046FFF75CF90146A8601DA0FFF7E8
:100FC0000FFDCFE70D0A2055534152543120707266
:100FD000696E742041445F76616C7565202D2D2DFE
:100FE0002D2D2D2D2D2D2D2D2D2D2D2D2D2D2D2D31
:100FF0002D2D2D2D2D2D2D200D0A00000800024035
:101000004C2401404000002002000020A0BB0D0045
:101010005468652063757272656E74204144322095
:1010200076616C7565203D20307825303458200D70
:101030000A0000005468652063757272656E742042
:101040004144312076616C7565203D203078253033
:101050003458200D0A00000078100008000000201D
:101060002C000000000A0008A41000082C0000203A
:1010700044020000100A0008000000000000000008
:10108000000000000000000000000000020406084C
:10109000000000000102030401020304060708091E
:0410A000000000004C
:0400000508000131BD
:00000001FF
